{
  "address": "0x9fE46736679d2D9a65F0992F2272dE9f3c7fa6e0",
  "abi": [
    {
      "anonymous": false,
      "inputs": [
        {
          "indexed": true,
          "internalType": "address",
          "name": "user",
          "type": "address"
        },
        {
          "indexed": false,
          "internalType": "uint256",
          "name": "timestamp",
          "type": "uint256"
        }
      ],
      "name": "FitnessDataUpdated",
      "type": "event"
    },
    {
      "inputs": [
        {
          "internalType": "address",
          "name": "account",
          "type": "address"
        }
      ],
      "name": "getAllFitnessData",
      "outputs": [
        {
          "internalType": "string",
          "name": "name",
          "type": "string"
        },
        {
          "internalType": "uint256",
          "name": "steps",
          "type": "uint256"
        },
        {
          "internalType": "uint256",
          "name": "runningDistance",
          "type": "uint256"
        },
        {
          "internalType": "uint256",
          "name": "caloriesBurned",
          "type": "uint256"
        },
        {
          "internalType": "uint256",
          "name": "workoutDuration",
          "type": "uint256"
        },
        {
          "internalType": "uint256",
          "name": "heartRateAvg",
          "type": "uint256"
        },
        {
          "internalType": "uint256",
          "name": "totalWorkouts",
          "type": "uint256"
        },
        {
          "internalType": "uint256",
          "name": "lastUpdate",
          "type": "uint256"
        }
      ],
      "stateMutability": "view",
      "type": "function"
    },
    {
      "inputs": [
        {
          "internalType": "address",
          "name": "account",
          "type": "address"
        }
      ],
      "name": "getCaloriesBurned",
      "outputs": [
        {
          "internalType": "uint256",
          "name": "",
          "type": "uint256"
        }
      ],
      "stateMutability": "view",
      "type": "function"
    },
    {
      "inputs": [
        {
          "internalType": "address",
          "name": "account",
          "type": "address"
        }
      ],
      "name": "getHeartRateAvg",
      "outputs": [
        {
          "internalType": "uint256",
          "name": "",
          "type": "uint256"
        }
      ],
      "stateMutability": "view",
      "type": "function"
    },
    {
      "inputs": [
        {
          "internalType": "address",
          "name": "account",
          "type": "address"
        }
      ],
      "name": "getLastUpdate",
      "outputs": [
        {
          "internalType": "uint256",
          "name": "",
          "type": "uint256"
        }
      ],
      "stateMutability": "view",
      "type": "function"
    },
    {
      "inputs": [
        {
          "internalType": "address",
          "name": "account",
          "type": "address"
        }
      ],
      "name": "getName",
      "outputs": [
        {
          "internalType": "string",
          "name": "",
          "type": "string"
        }
      ],
      "stateMutability": "view",
      "type": "function"
    },
    {
      "inputs": [
        {
          "internalType": "address",
          "name": "account",
          "type": "address"
        }
      ],
      "name": "getRunningDistance",
      "outputs": [
        {
          "internalType": "uint256",
          "name": "",
          "type": "uint256"
        }
      ],
      "stateMutability": "view",
      "type": "function"
    },
    {
      "inputs": [
        {
          "internalType": "address",
          "name": "account",
          "type": "address"
        }
      ],
      "name": "getSteps",
      "outputs": [
        {
          "internalType": "uint256",
          "name": "",
          "type": "uint256"
        }
      ],
      "stateMutability": "view",
      "type": "function"
    },
    {
      "inputs": [
        {
          "internalType": "address",
          "name": "account",
          "type": "address"
        }
      ],
      "name": "getTotalWorkouts",
      "outputs": [
        {
          "internalType": "uint256",
          "name": "",
          "type": "uint256"
        }
      ],
      "stateMutability": "view",
      "type": "function"
    },
    {
      "inputs": [
        {
          "internalType": "address",
          "name": "account",
          "type": "address"
        }
      ],
      "name": "getWorkoutDuration",
      "outputs": [
        {
          "internalType": "uint256",
          "name": "",
          "type": "uint256"
        }
      ],
      "stateMutability": "view",
      "type": "function"
    },
    {
      "inputs": [
        {
          "internalType": "address",
          "name": "account",
          "type": "address"
        }
      ],
      "name": "hasFitnessData",
      "outputs": [
        {
          "internalType": "bool",
          "name": "",
          "type": "bool"
        }
      ],
      "stateMutability": "view",
      "type": "function"
    },
    {
      "inputs": [],
      "name": "protocolId",
      "outputs": [
        {
          "internalType": "uint256",
          "name": "",
          "type": "uint256"
        }
      ],
      "stateMutability": "pure",
      "type": "function"
    },
    {
      "inputs": [
        {
          "internalType": "uint256",
          "name": "steps",
          "type": "uint256"
        },
        {
          "internalType": "uint256",
          "name": "runningDistance",
          "type": "uint256"
        },
        {
          "internalType": "uint256",
          "name": "caloriesBurned",
          "type": "uint256"
        },
        {
          "internalType": "uint256",
          "name": "workoutDuration",
          "type": "uint256"
        },
        {
          "internalType": "uint256",
          "name": "heartRateAvg",
          "type": "uint256"
        },
        {
          "internalType": "string",
          "name": "name",
          "type": "string"
        }
      ],
      "name": "setFitnessData",
      "outputs": [],
      "stateMutability": "nonpayable",
      "type": "function"
    }
  ],
  "transactionHash": "0x4b15a2718ffa8187a9fc0538a53d52c0b86a13fc6853ecbd4ace275f63914534",
  "args": [],
  "numDeployments": 1,
  "solcInputHash": "c7e17e721771a06844e841f86ec80a52",
  "bytecode": "0x60808060405234601557610784908161001a8239f35b5f80fdfe6080806040526004361015610012575f80fd5b5f3560e01c9081631473d6dc14610603575080631a580d82146105c65780632b2fc2391461035f57806334e2abb8146103225780634a493d23146102415780635a7e1989146102045780635fd4b08a146101b257806377b06d261461017557806384fd48b81461013a5780638cdb5f0e146100fd578063995e5f92146100c05763da1f12ab146100a0575f80fd5b346100bc575f3660031901126100bc5760206040516127118152f35b5f80fd5b346100bc5760203660031901126100bc576004356001600160a01b0381168091036100bc575f525f6020526020600160405f200154604051908152f35b346100bc5760203660031901126100bc576004356001600160a01b0381168091036100bc575f525f6020526020600460405f200154604051908152f35b346100bc5760203660031901126100bc576004356001600160a01b0381168091036100bc575f526001602052602060405f2054604051908152f35b346100bc5760203660031901126100bc576004356001600160a01b0381168091036100bc575f525f6020526020600360405f200154604051908152f35b346100bc5760203660031901126100bc576004356001600160a01b0381168091036100bc575f525f6020526102006101ec60405f206106d7565b60405191829160208352602083019061063d565b0390f35b346100bc5760203660031901126100bc576004356001600160a01b0381168091036100bc575f525f6020526020600660405f200154604051908152f35b346100bc5760203660031901126100bc576004356001600160a01b0381168091036100bc57806102fa915f525f60205260405f206040519161028283610661565b61028b826106d7565b92838152600183015492836020830152600281015492836040840152600382015480606085015260048301549182608086015260c060066005860154958660a0890152015495019485525f52600160205260405f20549351946040519889986101008a526101008a019061063d565b96602089015260408801526060870152608086015260a085015260c084015260e08301520390f35b346100bc5760203660031901126100bc576004356001600160a01b0381168091036100bc575f525f6020526020600260405f200154604051908152f35b346100bc5760c03660031901126100bc5760a43567ffffffffffffffff81116100bc57366023820112156100bc5780600401359067ffffffffffffffff82116100bc5736602483830101116100bc575f6020604051936103be85610661565b806024604051956103d885601f19601f860116018861067d565b82875201838601378301015281526020810190600435825260408101602435815260608201604435815260808301606435815260a0840191608435835260c0850193428552335f525f60205260405f20955196875167ffffffffffffffff81116105b257610446885461069f565b601f811161056d575b506020601f82116001146105085781906006999a5f926104fd575b50508160011b915f199060031b1c19161788555b51600188015551600287015551600386015551600485015551600584015551910155335f52600160205260405f2080545f1981146104e95760010190556040514281527f4b5df0296fe89201effaa2c4f103d91d6dd6708f4159a18031d0f7a4e5403e4360203392a2005b634e487b7160e01b5f52601160045260245ffd5b015190508a8061046a565b601f19821699895f52815f209a5f5b81811061055557509160069a9b9184600195941061053d575b505050811b01885561047e565b01515f1960f88460031b161c191690558a8080610530565b838301518d556001909c019b60209384019301610517565b885f5260205f20601f830160051c810191602084106105a8575b601f0160051c01905b81811061059d575061044f565b5f8155600101610590565b9091508190610587565b634e487b7160e01b5f52604160045260245ffd5b346100bc5760203660031901126100bc576004356001600160a01b0381168091036100bc575f525f6020526020600560405f200154604051908152f35b346100bc5760203660031901126100bc57600435906001600160a01b0382168092036100bc576020915f526001825260405f205415158152f35b805180835260209291819084018484015e5f828201840152601f01601f1916010190565b60e0810190811067ffffffffffffffff8211176105b257604052565b90601f8019910116810190811067ffffffffffffffff8211176105b257604052565b90600182811c921680156106cd575b60208310146106b957565b634e487b7160e01b5f52602260045260245ffd5b91607f16916106ae565b9060405191825f8254926106ea8461069f565b80845293600181169081156107555750600114610711575b5061070f9250038361067d565b565b90505f9291925260205f20905f915b81831061073957505090602061070f928201015f610702565b6020919350806001915483858901015201910190918492610720565b90506020925061070f94915060ff191682840152151560051b8201015f61070256fea164736f6c634300081b000a",
  "devdoc": {
    "details": "Stores fitness data in clear text for testing",
    "kind": "dev",
    "methods": {},
    "title": "FitnessDataStorageSimple",
    "version": 1
  },
  "userdoc": {
    "kind": "user",
    "methods": {
      "getAllFitnessData(address)": {
        "notice": "Get all fitness data for an account"
      },
      "getCaloriesBurned(address)": {
        "notice": "Get calories burned for an account (clear text for demo)"
      },
      "getHeartRateAvg(address)": {
        "notice": "Get average heart rate for an account (clear text for demo)"
      },
      "getLastUpdate(address)": {
        "notice": "Get last update timestamp for an account"
      },
      "getName(address)": {
        "notice": "Get clear text user name for an account"
      },
      "getRunningDistance(address)": {
        "notice": "Get running distance for an account (clear text for demo)"
      },
      "getSteps(address)": {
        "notice": "Get steps for an account (clear text for demo)"
      },
      "getTotalWorkouts(address)": {
        "notice": "Get total workouts count for an account"
      },
      "getWorkoutDuration(address)": {
        "notice": "Get workout duration for an account (clear text for demo)"
      },
      "hasFitnessData(address)": {
        "notice": "Check if user has fitness data"
      },
      "protocolId()": {
        "notice": "Protocol ID for compatibility"
      },
      "setFitnessData(uint256,uint256,uint256,uint256,uint256,string)": {
        "notice": "Submit fitness data (simplified version without FHE)"
      }
    },
    "notice": "Simplified version for demo purposes without FHE",
    "version": 1
  },
  "storageLayout": {
    "storage": [
      {
        "astId": 22,
        "contract": "contracts/FitnessDataStorageSimple.sol:FitnessDataStorageSimple",
        "label": "_fitnessRecords",
        "offset": 0,
        "slot": "0",
        "type": "t_mapping(t_address,t_struct(FitnessData)17_storage)"
      },
      {
        "astId": 26,
        "contract": "contracts/FitnessDataStorageSimple.sol:FitnessDataStorageSimple",
        "label": "_totalWorkouts",
        "offset": 0,
        "slot": "1",
        "type": "t_mapping(t_address,t_uint256)"
      }
    ],
    "types": {
      "t_address": {
        "encoding": "inplace",
        "label": "address",
        "numberOfBytes": "20"
      },
      "t_mapping(t_address,t_struct(FitnessData)17_storage)": {
        "encoding": "mapping",
        "key": "t_address",
        "label": "mapping(address => struct FitnessDataStorageSimple.FitnessData)",
        "numberOfBytes": "32",
        "value": "t_struct(FitnessData)17_storage"
      },
      "t_mapping(t_address,t_uint256)": {
        "encoding": "mapping",
        "key": "t_address",
        "label": "mapping(address => uint256)",
        "numberOfBytes": "32",
        "value": "t_uint256"
      },
      "t_string_storage": {
        "encoding": "bytes",
        "label": "string",
        "numberOfBytes": "32"
      },
      "t_struct(FitnessData)17_storage": {
        "encoding": "inplace",
        "label": "struct FitnessDataStorageSimple.FitnessData",
        "members": [
          {
            "astId": 4,
            "contract": "contracts/FitnessDataStorageSimple.sol:FitnessDataStorageSimple",
            "label": "name",
            "offset": 0,
            "slot": "0",
            "type": "t_string_storage"
          },
          {
            "astId": 6,
            "contract": "contracts/FitnessDataStorageSimple.sol:FitnessDataStorageSimple",
            "label": "steps",
            "offset": 0,
            "slot": "1",
            "type": "t_uint256"
          },
          {
            "astId": 8,
            "contract": "contracts/FitnessDataStorageSimple.sol:FitnessDataStorageSimple",
            "label": "runningDistance",
            "offset": 0,
            "slot": "2",
            "type": "t_uint256"
          },
          {
            "astId": 10,
            "contract": "contracts/FitnessDataStorageSimple.sol:FitnessDataStorageSimple",
            "label": "caloriesBurned",
            "offset": 0,
            "slot": "3",
            "type": "t_uint256"
          },
          {
            "astId": 12,
            "contract": "contracts/FitnessDataStorageSimple.sol:FitnessDataStorageSimple",
            "label": "workoutDuration",
            "offset": 0,
            "slot": "4",
            "type": "t_uint256"
          },
          {
            "astId": 14,
            "contract": "contracts/FitnessDataStorageSimple.sol:FitnessDataStorageSimple",
            "label": "heartRateAvg",
            "offset": 0,
            "slot": "5",
            "type": "t_uint256"
          },
          {
            "astId": 16,
            "contract": "contracts/FitnessDataStorageSimple.sol:FitnessDataStorageSimple",
            "label": "lastUpdate",
            "offset": 0,
            "slot": "6",
            "type": "t_uint256"
          }
        ],
        "numberOfBytes": "224"
      },
      "t_uint256": {
        "encoding": "inplace",
        "label": "uint256",
        "numberOfBytes": "32"
      }
    }
  }
}